{
  "fileName": "Token.sol",
  "contractName": "Token",
  "source": "pragma solidity ^0.5.0;\n\nimport \"@openzeppelin/upgrades/contracts/Initializable.sol\";\nimport \"@openzeppelin/contracts-ethereum-package/contracts/ownership/Ownable.sol\";\nimport \"@openzeppelin/contracts-ethereum-package/contracts/token/ERC20/ERC20Detailed.sol\";\nimport \"@openzeppelin/contracts-ethereum-package/contracts/token/ERC20/ERC20Mintable.sol\";\n//import \"@openzeppelin/contracts-ethereum-package/contracts/token/ERC20/ERC20Burnable.sol\";\nimport \"./ERC20Stakes.sol\";\nimport \"./ERC20Airdrop.sol\";\n\ncontract Token is Initializable, Ownable, ERC20Airdrop, ERC20Stakes, ERC20Detailed, ERC20Mintable {\n\n    function initialize(string memory name, string memory symbol, uint8 decimals, uint256 initialSupply, address initialHolder,\n        uint256 stakeBasePeriod, uint256 stakeHoldPeriod, uint256 stakeAnnualPercent, uint256 stakeAnnualPeriod) public initializer {\n        Ownable.initialize(initialHolder);\n        ERC20Detailed.initialize(name, symbol, decimals);\n        // Mint the initial supply\n        _mint(initialHolder, initialSupply); // * 10 ** uint256(decimals)\n\n        // Initialize the minter roles, and renounce them\n        ERC20Mintable.initialize(initialHolder);\n\n\n//        uint256 constant _holdPeriod = 21 days;\n//        uint256 constant _annualPercent = 12; // 12%\n//        uint256 constant _basePeriod = 1 days;\n//        uint256 constant _annualPeriod = 365 days;\n        ERC20Stakes.initialize(stakeBasePeriod, stakeHoldPeriod, stakeAnnualPercent, stakeAnnualPeriod);\n\n    }\n\n    /**\n    * @dev non payable default function\n    *\n    * prevents to receive eth by direct transfer to contract\n    */\n    function() external {}\n\n    /**\n    * @dev allow minter to burn tokens from any account\n    */\n    function burn(address account, uint256 amount) public onlyMinter returns (bool) {\n        _burn(account, amount);\n        return true;\n    }\n\n    function stakeParams(uint256 basePeriod, uint256 holdPeriod, uint256 annualPercent, uint256 annualPeriod) external onlyOwner {\n        _stakeParams(basePeriod, holdPeriod, annualPercent, annualPeriod);\n    }\n\n    uint256[50] private ______gap;\n}\n",
  "sourcePath": "contracts/Token.sol",
  "abi": [
    {
      "anonymous": false,
      "inputs": [
        {
          "indexed": true,
          "internalType": "address",
          "name": "owner",
          "type": "address"
        },
        {
          "indexed": true,
          "internalType": "address",
          "name": "spender",
          "type": "address"
        },
        {
          "indexed": false,
          "internalType": "uint256",
          "name": "value",
          "type": "uint256"
        }
      ],
      "name": "Approval",
      "type": "event"
    },
    {
      "anonymous": false,
      "inputs": [
        {
          "indexed": true,
          "internalType": "address",
          "name": "account",
          "type": "address"
        }
      ],
      "name": "MinterAdded",
      "type": "event"
    },
    {
      "anonymous": false,
      "inputs": [
        {
          "indexed": true,
          "internalType": "address",
          "name": "account",
          "type": "address"
        }
      ],
      "name": "MinterRemoved",
      "type": "event"
    },
    {
      "anonymous": false,
      "inputs": [
        {
          "indexed": true,
          "internalType": "address",
          "name": "previousOwner",
          "type": "address"
        },
        {
          "indexed": true,
          "internalType": "address",
          "name": "newOwner",
          "type": "address"
        }
      ],
      "name": "OwnershipTransferred",
      "type": "event"
    },
    {
      "anonymous": false,
      "inputs": [
        {
          "indexed": true,
          "internalType": "address",
          "name": "stakeholder",
          "type": "address"
        },
        {
          "indexed": false,
          "internalType": "uint256",
          "name": "stake",
          "type": "uint256"
        }
      ],
      "name": "StakeCreate",
      "type": "event"
    },
    {
      "anonymous": false,
      "inputs": [
        {
          "indexed": true,
          "internalType": "address",
          "name": "stakeholder",
          "type": "address"
        }
      ],
      "name": "StakeHold",
      "type": "event"
    },
    {
      "anonymous": false,
      "inputs": [
        {
          "indexed": true,
          "internalType": "address",
          "name": "stakeholder",
          "type": "address"
        },
        {
          "indexed": false,
          "internalType": "uint256",
          "name": "reward",
          "type": "uint256"
        }
      ],
      "name": "StakeWithdraw",
      "type": "event"
    },
    {
      "anonymous": false,
      "inputs": [
        {
          "indexed": true,
          "internalType": "address",
          "name": "from",
          "type": "address"
        },
        {
          "indexed": true,
          "internalType": "address",
          "name": "to",
          "type": "address"
        },
        {
          "indexed": false,
          "internalType": "uint256",
          "name": "value",
          "type": "uint256"
        }
      ],
      "name": "Transfer",
      "type": "event"
    },
    {
      "payable": false,
      "stateMutability": "nonpayable",
      "type": "fallback"
    },
    {
      "constant": false,
      "inputs": [
        {
          "internalType": "address",
          "name": "account",
          "type": "address"
        }
      ],
      "name": "addMinter",
      "outputs": [],
      "payable": false,
      "stateMutability": "nonpayable",
      "type": "function"
    },
    {
      "constant": false,
      "inputs": [
        {
          "internalType": "uint256",
          "name": "amount",
          "type": "uint256"
        },
        {
          "internalType": "address[]",
          "name": "recipients",
          "type": "address[]"
        }
      ],
      "name": "airdrop",
      "outputs": [],
      "payable": false,
      "stateMutability": "nonpayable",
      "type": "function"
    },
    {
      "constant": true,
      "inputs": [
        {
          "internalType": "address",
          "name": "owner",
          "type": "address"
        },
        {
          "internalType": "address",
          "name": "spender",
          "type": "address"
        }
      ],
      "name": "allowance",
      "outputs": [
        {
          "internalType": "uint256",
          "name": "",
          "type": "uint256"
        }
      ],
      "payable": false,
      "stateMutability": "view",
      "type": "function"
    },
    {
      "constant": true,
      "inputs": [],
      "name": "annualPercent",
      "outputs": [
        {
          "internalType": "uint256",
          "name": "",
          "type": "uint256"
        }
      ],
      "payable": false,
      "stateMutability": "view",
      "type": "function"
    },
    {
      "constant": true,
      "inputs": [],
      "name": "annualPeriod",
      "outputs": [
        {
          "internalType": "uint256",
          "name": "",
          "type": "uint256"
        }
      ],
      "payable": false,
      "stateMutability": "view",
      "type": "function"
    },
    {
      "constant": false,
      "inputs": [
        {
          "internalType": "address",
          "name": "spender",
          "type": "address"
        },
        {
          "internalType": "uint256",
          "name": "amount",
          "type": "uint256"
        }
      ],
      "name": "approve",
      "outputs": [
        {
          "internalType": "bool",
          "name": "",
          "type": "bool"
        }
      ],
      "payable": false,
      "stateMutability": "nonpayable",
      "type": "function"
    },
    {
      "constant": true,
      "inputs": [
        {
          "internalType": "address",
          "name": "account",
          "type": "address"
        }
      ],
      "name": "balanceOf",
      "outputs": [
        {
          "internalType": "uint256",
          "name": "",
          "type": "uint256"
        }
      ],
      "payable": false,
      "stateMutability": "view",
      "type": "function"
    },
    {
      "constant": true,
      "inputs": [],
      "name": "basePeriod",
      "outputs": [
        {
          "internalType": "uint256",
          "name": "",
          "type": "uint256"
        }
      ],
      "payable": false,
      "stateMutability": "view",
      "type": "function"
    },
    {
      "constant": false,
      "inputs": [
        {
          "internalType": "address",
          "name": "account",
          "type": "address"
        },
        {
          "internalType": "uint256",
          "name": "amount",
          "type": "uint256"
        }
      ],
      "name": "burn",
      "outputs": [
        {
          "internalType": "bool",
          "name": "",
          "type": "bool"
        }
      ],
      "payable": false,
      "stateMutability": "nonpayable",
      "type": "function"
    },
    {
      "constant": false,
      "inputs": [],
      "name": "cancelStake",
      "outputs": [],
      "payable": false,
      "stateMutability": "nonpayable",
      "type": "function"
    },
    {
      "constant": false,
      "inputs": [
        {
          "internalType": "uint256",
          "name": "stake",
          "type": "uint256"
        }
      ],
      "name": "createStake",
      "outputs": [],
      "payable": false,
      "stateMutability": "nonpayable",
      "type": "function"
    },
    {
      "constant": true,
      "inputs": [],
      "name": "decimals",
      "outputs": [
        {
          "internalType": "uint8",
          "name": "",
          "type": "uint8"
        }
      ],
      "payable": false,
      "stateMutability": "view",
      "type": "function"
    },
    {
      "constant": false,
      "inputs": [
        {
          "internalType": "address",
          "name": "spender",
          "type": "address"
        },
        {
          "internalType": "uint256",
          "name": "subtractedValue",
          "type": "uint256"
        }
      ],
      "name": "decreaseAllowance",
      "outputs": [
        {
          "internalType": "bool",
          "name": "",
          "type": "bool"
        }
      ],
      "payable": false,
      "stateMutability": "nonpayable",
      "type": "function"
    },
    {
      "constant": true,
      "inputs": [],
      "name": "holdPeriod",
      "outputs": [
        {
          "internalType": "uint256",
          "name": "",
          "type": "uint256"
        }
      ],
      "payable": false,
      "stateMutability": "view",
      "type": "function"
    },
    {
      "constant": false,
      "inputs": [
        {
          "internalType": "address",
          "name": "spender",
          "type": "address"
        },
        {
          "internalType": "uint256",
          "name": "addedValue",
          "type": "uint256"
        }
      ],
      "name": "increaseAllowance",
      "outputs": [
        {
          "internalType": "bool",
          "name": "",
          "type": "bool"
        }
      ],
      "payable": false,
      "stateMutability": "nonpayable",
      "type": "function"
    },
    {
      "constant": false,
      "inputs": [
        {
          "internalType": "string",
          "name": "name",
          "type": "string"
        },
        {
          "internalType": "string",
          "name": "symbol",
          "type": "string"
        },
        {
          "internalType": "uint8",
          "name": "decimals",
          "type": "uint8"
        }
      ],
      "name": "initialize",
      "outputs": [],
      "payable": false,
      "stateMutability": "nonpayable",
      "type": "function"
    },
    {
      "constant": false,
      "inputs": [
        {
          "internalType": "uint256",
          "name": "basePeriod",
          "type": "uint256"
        },
        {
          "internalType": "uint256",
          "name": "holdPeriod",
          "type": "uint256"
        },
        {
          "internalType": "uint256",
          "name": "annualPercent",
          "type": "uint256"
        },
        {
          "internalType": "uint256",
          "name": "annualPeriod",
          "type": "uint256"
        }
      ],
      "name": "initialize",
      "outputs": [],
      "payable": false,
      "stateMutability": "nonpayable",
      "type": "function"
    },
    {
      "constant": false,
      "inputs": [
        {
          "internalType": "string",
          "name": "name",
          "type": "string"
        },
        {
          "internalType": "string",
          "name": "symbol",
          "type": "string"
        },
        {
          "internalType": "uint8",
          "name": "decimals",
          "type": "uint8"
        },
        {
          "internalType": "uint256",
          "name": "initialSupply",
          "type": "uint256"
        },
        {
          "internalType": "address",
          "name": "initialHolder",
          "type": "address"
        },
        {
          "internalType": "uint256",
          "name": "stakeBasePeriod",
          "type": "uint256"
        },
        {
          "internalType": "uint256",
          "name": "stakeHoldPeriod",
          "type": "uint256"
        },
        {
          "internalType": "uint256",
          "name": "stakeAnnualPercent",
          "type": "uint256"
        },
        {
          "internalType": "uint256",
          "name": "stakeAnnualPeriod",
          "type": "uint256"
        }
      ],
      "name": "initialize",
      "outputs": [],
      "payable": false,
      "stateMutability": "nonpayable",
      "type": "function"
    },
    {
      "constant": false,
      "inputs": [
        {
          "internalType": "address",
          "name": "sender",
          "type": "address"
        }
      ],
      "name": "initialize",
      "outputs": [],
      "payable": false,
      "stateMutability": "nonpayable",
      "type": "function"
    },
    {
      "constant": true,
      "inputs": [
        {
          "internalType": "address",
          "name": "account",
          "type": "address"
        }
      ],
      "name": "isMinter",
      "outputs": [
        {
          "internalType": "bool",
          "name": "",
          "type": "bool"
        }
      ],
      "payable": false,
      "stateMutability": "view",
      "type": "function"
    },
    {
      "constant": true,
      "inputs": [],
      "name": "isOwner",
      "outputs": [
        {
          "internalType": "bool",
          "name": "",
          "type": "bool"
        }
      ],
      "payable": false,
      "stateMutability": "view",
      "type": "function"
    },
    {
      "constant": true,
      "inputs": [
        {
          "internalType": "address",
          "name": "stakeholder",
          "type": "address"
        }
      ],
      "name": "isStakeholder",
      "outputs": [
        {
          "internalType": "bool",
          "name": "",
          "type": "bool"
        },
        {
          "internalType": "uint256",
          "name": "",
          "type": "uint256"
        }
      ],
      "payable": false,
      "stateMutability": "view",
      "type": "function"
    },
    {
      "constant": false,
      "inputs": [
        {
          "internalType": "address",
          "name": "account",
          "type": "address"
        },
        {
          "internalType": "uint256",
          "name": "amount",
          "type": "uint256"
        }
      ],
      "name": "mint",
      "outputs": [
        {
          "internalType": "bool",
          "name": "",
          "type": "bool"
        }
      ],
      "payable": false,
      "stateMutability": "nonpayable",
      "type": "function"
    },
    {
      "constant": true,
      "inputs": [],
      "name": "name",
      "outputs": [
        {
          "internalType": "string",
          "name": "",
          "type": "string"
        }
      ],
      "payable": false,
      "stateMutability": "view",
      "type": "function"
    },
    {
      "constant": true,
      "inputs": [],
      "name": "owner",
      "outputs": [
        {
          "internalType": "address",
          "name": "",
          "type": "address"
        }
      ],
      "payable": false,
      "stateMutability": "view",
      "type": "function"
    },
    {
      "constant": false,
      "inputs": [],
      "name": "renounceMinter",
      "outputs": [],
      "payable": false,
      "stateMutability": "nonpayable",
      "type": "function"
    },
    {
      "constant": false,
      "inputs": [],
      "name": "renounceOwnership",
      "outputs": [],
      "payable": false,
      "stateMutability": "nonpayable",
      "type": "function"
    },
    {
      "constant": true,
      "inputs": [
        {
          "internalType": "address",
          "name": "stakeholder",
          "type": "address"
        }
      ],
      "name": "rewardOf",
      "outputs": [
        {
          "internalType": "uint256",
          "name": "",
          "type": "uint256"
        }
      ],
      "payable": false,
      "stateMutability": "view",
      "type": "function"
    },
    {
      "constant": true,
      "inputs": [
        {
          "internalType": "address",
          "name": "stakeholder",
          "type": "address"
        }
      ],
      "name": "stakeDetails",
      "outputs": [
        {
          "internalType": "uint256",
          "name": "",
          "type": "uint256"
        },
        {
          "internalType": "uint256",
          "name": "",
          "type": "uint256"
        }
      ],
      "payable": false,
      "stateMutability": "view",
      "type": "function"
    },
    {
      "constant": true,
      "inputs": [
        {
          "internalType": "address",
          "name": "stakeholder",
          "type": "address"
        }
      ],
      "name": "stakeOf",
      "outputs": [
        {
          "internalType": "uint256",
          "name": "",
          "type": "uint256"
        }
      ],
      "payable": false,
      "stateMutability": "view",
      "type": "function"
    },
    {
      "constant": false,
      "inputs": [
        {
          "internalType": "uint256",
          "name": "basePeriod",
          "type": "uint256"
        },
        {
          "internalType": "uint256",
          "name": "holdPeriod",
          "type": "uint256"
        },
        {
          "internalType": "uint256",
          "name": "annualPercent",
          "type": "uint256"
        },
        {
          "internalType": "uint256",
          "name": "annualPeriod",
          "type": "uint256"
        }
      ],
      "name": "stakeParams",
      "outputs": [],
      "payable": false,
      "stateMutability": "nonpayable",
      "type": "function"
    },
    {
      "constant": true,
      "inputs": [],
      "name": "symbol",
      "outputs": [
        {
          "internalType": "string",
          "name": "",
          "type": "string"
        }
      ],
      "payable": false,
      "stateMutability": "view",
      "type": "function"
    },
    {
      "constant": true,
      "inputs": [],
      "name": "totalStakes",
      "outputs": [
        {
          "internalType": "uint256",
          "name": "",
          "type": "uint256"
        }
      ],
      "payable": false,
      "stateMutability": "view",
      "type": "function"
    },
    {
      "constant": true,
      "inputs": [],
      "name": "totalSupply",
      "outputs": [
        {
          "internalType": "uint256",
          "name": "",
          "type": "uint256"
        }
      ],
      "payable": false,
      "stateMutability": "view",
      "type": "function"
    },
    {
      "constant": false,
      "inputs": [
        {
          "internalType": "address",
          "name": "recipient",
          "type": "address"
        },
        {
          "internalType": "uint256",
          "name": "amount",
          "type": "uint256"
        }
      ],
      "name": "transfer",
      "outputs": [
        {
          "internalType": "bool",
          "name": "",
          "type": "bool"
        }
      ],
      "payable": false,
      "stateMutability": "nonpayable",
      "type": "function"
    },
    {
      "constant": false,
      "inputs": [
        {
          "internalType": "address",
          "name": "sender",
          "type": "address"
        },
        {
          "internalType": "address",
          "name": "recipient",
          "type": "address"
        },
        {
          "internalType": "uint256",
          "name": "amount",
          "type": "uint256"
        }
      ],
      "name": "transferFrom",
      "outputs": [
        {
          "internalType": "bool",
          "name": "",
          "type": "bool"
        }
      ],
      "payable": false,
      "stateMutability": "nonpayable",
      "type": "function"
    },
    {
      "constant": false,
      "inputs": [
        {
          "internalType": "address",
          "name": "newOwner",
          "type": "address"
        }
      ],
      "name": "transferOwnership",
      "outputs": [],
      "payable": false,
      "stateMutability": "nonpayable",
      "type": "function"
    },
    {
      "constant": false,
      "inputs": [],
      "name": "withdrawStake",
      "outputs": [],
      "payable": false,
      "stateMutability": "nonpayable",
      "type": "function"
    }
  ],
  "bytecode": "0x6080604052612891806100136000396000f3fe608060405234801561001057600080fd5b50600436106102325760003560e01c80639865027511610130578063bf9befb1116100b8578063eadca0f41161007c578063eadca0f414610930578063ef037b9014610938578063f2fde38b14610979578063f5967a2f1461099f578063fa2a9da9146109a757610232565b8063bf9befb1146108c4578063c4d66de8146108cc578063ca9ce291146108f2578063dd62ed3e146108fa578063e1b8e8131461092857610232565b8063a9bd4296116100ff578063a9bd4296146107ea578063aa271e1a146107f2578063b7b8e91714610818578063bdf7a8e614610847578063bed9d861146108bc57610232565b8063986502751461075e5780639dc29fac14610766578063a457c2d714610792578063a9059cbb146107be57610232565b806340c10f19116101be578063715018a611610182578063715018a6146106fc5780638da5cb5b146107045780638f32d59b1461072857806395d89b4114610730578063983b2d561461073857610232565b806340c10f19146104fc578063426233601461052857806360a2da441461054e5780636f34dc5b1461057d57806370a08231146106d657610232565b80631bf6ddae116102055780631bf6ddae146104395780631d62ebd91461045657806323b872dd1461047c578063313ce567146104b257806339509351146104d057610232565b806306fdde0314610234578063095ea7b3146102b15780631624f6c6146102f157806318160ddd1461041f575b005b61023c6109e6565b6040805160208082528351818301528351919283929083019185019080838360005b8381101561027657818101518382015260200161025e565b50505050905090810190601f1680156102a35780820380516001836020036101000a031916815260200191505b509250505060405180910390f35b6102dd600480360360408110156102c757600080fd5b506001600160a01b038135169060200135610a7e565b604080519115158252519081900360200190f35b6102326004803603606081101561030757600080fd5b810190602081018135600160201b81111561032157600080fd5b82018360208201111561033357600080fd5b803590602001918460018302840111600160201b8311171561035457600080fd5b91908080601f0160208091040260200160405190810160405280939291908181526020018383808284376000920191909152509295949360208101935035915050600160201b8111156103a657600080fd5b8201836020820111156103b857600080fd5b803590602001918460018302840111600160201b831117156103d957600080fd5b91908080601f0160208091040260200160405190810160405280939291908181526020018383808284376000920191909152509295505050903560ff169150610a9c9050565b610427610b7b565b60408051918252519081900360200190f35b6102326004803603602081101561044f57600080fd5b5035610b81565b6104276004803603602081101561046c57600080fd5b50356001600160a01b0316610b95565b6102dd6004803603606081101561049257600080fd5b506001600160a01b03813581169160208101359091169060400135610c14565b6104ba610ca1565b6040805160ff9092168252519081900360200190f35b6102dd600480360360408110156104e657600080fd5b506001600160a01b038135169060200135610cab565b6102dd6004803603604081101561051257600080fd5b506001600160a01b038135169060200135610cff565b6104276004803603602081101561053e57600080fd5b50356001600160a01b0316610d56565b6102326004803603608081101561056457600080fd5b5080359060208101359060408101359060600135610d71565b610232600480360361012081101561059457600080fd5b810190602081018135600160201b8111156105ae57600080fd5b8201836020820111156105c057600080fd5b803590602001918460018302840111600160201b831117156105e157600080fd5b91908080601f0160208091040260200160405190810160405280939291908181526020018383808284376000920191909152509295949360208101935035915050600160201b81111561063357600080fd5b82018360208201111561064557600080fd5b803590602001918460018302840111600160201b8311171561066657600080fd5b91908080601f0160208091040260200160405190810160405280939291908181526020018383808284376000920191909152509295505060ff833516935050506020810135906001600160a01b036040820135169060608101359060808101359060a08101359060c00135610e23565b610427600480360360208110156106ec57600080fd5b50356001600160a01b0316610f01565b610232610f1c565b61070c610fbf565b604080516001600160a01b039092168252519081900360200190f35b6102dd610fce565b61023c610ff4565b6102326004803603602081101561074e57600080fd5b50356001600160a01b0316611056565b6102326110a5565b6102dd6004803603604081101561077c57600080fd5b506001600160a01b0381351690602001356110b7565b6102dd600480360360408110156107a857600080fd5b506001600160a01b038135169060200135611109565b6102dd600480360360408110156107d457600080fd5b506001600160a01b038135169060200135611177565b61042761118b565b6102dd6004803603602081101561080857600080fd5b50356001600160a01b0316611191565b6102326004803603608081101561082e57600080fd5b50803590602081013590604081013590606001356111a5565b6102326004803603604081101561085d57600080fd5b81359190810190604081016020820135600160201b81111561087e57600080fd5b82018360208201111561089057600080fd5b803590602001918460208302840111600160201b831117156108b157600080fd5b50909250905061120a565b610232611359565b610427611369565b610232600480360360208110156108e257600080fd5b50356001600160a01b03166113ce565b61023261147a565b6104276004803603604081101561091057600080fd5b506001600160a01b038135811691602001351661148a565b6104276114b5565b6104276114c9565b61095e6004803603602081101561094e57600080fd5b50356001600160a01b03166114cf565b60408051921515835260208301919091528051918290030190f35b6102326004803603602081101561098f57600080fd5b50356001600160a01b031661152b565b61042761158d565b6109cd600480360360208110156109bd57600080fd5b50356001600160a01b0316611593565b6040805192835260208301919091528051918290030190f35b6101058054604080516020601f6002600019610100600188161502019095169490940493840181900481028201810190925282815260609390929091830182828015610a735780601f10610a4857610100808354040283529160200191610a73565b820191906000526020600020905b815481529060010190602001808311610a5657829003601f168201915b505050505090505b90565b6000610a92610a8b6115b9565b84846115bd565b5060015b92915050565b600054610100900460ff1680610ab55750610ab56116a9565b80610ac3575060005460ff16155b610afe5760405162461bcd60e51b815260040180806020018281038252602e8152602001806127a0602e913960400191505060405180910390fd5b600054610100900460ff16158015610b29576000805460ff1961ff0019909116610100171660011790555b8351610b3d90610105906020870190612571565b508251610b5290610106906020860190612571565b50610107805460ff191660ff84161790558015610b75576000805461ff00191690555b50505050565b60685490565b610b92610b8c6115b9565b826116af565b50565b6001600160a01b038116600090815260d26020526040812060010154610bbd57506000610c0f565b6001600160a01b038216600090815260d26020526040902060020154610c0c90839015610c05576001600160a01b038416600090815260d26020526040902060020154610c07565b425b6117ae565b90505b919050565b6000610c21848484611835565b610c9784610c2d6115b9565b610c9285604051806060016040528060288152602001612756602891396001600160a01b038a16600090815260676020526040812090610c6b6115b9565b6001600160a01b03168152602081019190915260400160002054919063ffffffff61199316565b6115bd565b5060019392505050565b6101075460ff1690565b6000610a92610cb86115b9565b84610c928560676000610cc96115b9565b6001600160a01b03908116825260208083019390935260409182016000908120918c16815292529020549063ffffffff611a2a16565b6000610d11610d0c6115b9565b611191565b610d4c5760405162461bcd60e51b81526004018080602001828103825260308152602001806126e46030913960400191505060405180910390fd5b610a928383611a8b565b6001600160a01b0316600090815260d2602052604090205490565b600054610100900460ff1680610d8a5750610d8a6116a9565b80610d98575060005460ff16155b610dd35760405162461bcd60e51b815260040180806020018281038252602e8152602001806127a0602e913960400191505060405180910390fd5b600054610100900460ff16158015610dfe576000805460ff1961ff0019909116610100171660011790555b610e0a85858585611b7d565b8015610e1c576000805461ff00191690555b5050505050565b600054610100900460ff1680610e3c5750610e3c6116a9565b80610e4a575060005460ff16155b610e855760405162461bcd60e51b815260040180806020018281038252602e8152602001806127a0602e913960400191505060405180910390fd5b600054610100900460ff16158015610eb0576000805460ff1961ff0019909116610100171660011790555b610eb986611ba6565b610ec48a8a8a610a9c565b610ece8688611a8b565b610ed7866113ce565b610ee385858585610d71565b8015610ef5576000805461ff00191690555b50505050505050505050565b6001600160a01b031660009081526066602052604090205490565b610f24610fce565b610f75576040805162461bcd60e51b815260206004820181905260248201527f4f776e61626c653a2063616c6c6572206973206e6f7420746865206f776e6572604482015290519081900360640190fd5b6033546040516000916001600160a01b0316907f8be0079c531659141344cd1fd0a4f28419497f9722a3daafe3b4186f6b6457e0908390a3603380546001600160a01b0319169055565b6033546001600160a01b031690565b6033546000906001600160a01b0316610fe56115b9565b6001600160a01b031614905090565b6101068054604080516020601f6002600019610100600188161502019095169490940493840181900481028201810190925282815260609390929091830182828015610a735780601f10610a4857610100808354040283529160200191610a73565b611061610d0c6115b9565b61109c5760405162461bcd60e51b81526004018080602001828103825260308152602001806126e46030913960400191505060405180910390fd5b610b9281611c97565b6110b56110b06115b9565b611ce0565b565b60006110c4610d0c6115b9565b6110ff5760405162461bcd60e51b81526004018080602001828103825260308152602001806126e46030913960400191505060405180910390fd5b610a928383611d29565b6000610a926111166115b9565b84610c928560405180606001604052806025815260200161283860259139606760006111406115b9565b6001600160a01b03908116825260208083019390935260409182016000908120918d1681529252902054919063ffffffff61199316565b6000610a926111846115b9565b8484611835565b60ce5490565b6000610c0c61013a8363ffffffff611e2516565b6111ad610fce565b6111fe576040805162461bcd60e51b815260206004820181905260248201527f4f776e61626c653a2063616c6c6572206973206e6f7420746865206f776e6572604482015290519081900360640190fd5b610b7584848484611b7d565b60008311611256576040805162461bcd60e51b8152602060048201526014602482015273105a5c991c9bdc0e881e995c9bc8185b5bdd5b9d60621b604482015290519081900360640190fd5b806112a8576040805162461bcd60e51b815260206004820152601c60248201527f41697264726f703a20726563697069656e747320726571756972656400000000604482015290519081900360640190fd5b60006112b26115b9565b90506112c4848363ffffffff611e8c16565b6112cd82610f01565b1015611320576040805162461bcd60e51b815260206004820152601b60248201527f41697264726f703a206e6f7420656e6f7567682062616c616e63650000000000604482015290519081900360640190fd5b60005b82811015610e1c576113518285858481811061133b57fe5b905060200201356001600160a01b031687611835565b600101611323565b6110b56113646115b9565b611ee5565b600080805b60d1548110156113c8576113be60d2600060d1848154811061138c57fe5b60009182526020808320909101546001600160a01b03168352820192909252604001902054839063ffffffff611a2a16565b915060010161136e565b50905090565b600054610100900460ff16806113e757506113e76116a9565b806113f5575060005460ff16155b6114305760405162461bcd60e51b815260040180806020018281038252602e8152602001806127a0602e913960400191505060405180910390fd5b600054610100900460ff1615801561145b576000805460ff1961ff0019909116610100171660011790555b61146482612070565b8015611476576000805461ff00191690555b5050565b6110b56114856115b9565b612113565b6001600160a01b03918216600090815260676020908152604080832093909416825291909152205490565b6000606460d054816114c357fe5b04905090565b60cf5490565b600080805b60d15481101561151d5760d181815481106114eb57fe5b6000918252602090912001546001600160a01b038581169116141561151557600192509050611526565b6001016114d4565b50600091508190505b915091565b611533610fce565b611584576040805162461bcd60e51b815260206004820181905260248201527f4f776e61626c653a2063616c6c6572206973206e6f7420746865206f776e6572604482015290519081900360640190fd5b610b9281612293565b60cd5490565b6001600160a01b0316600090815260d26020526040902060018101546002909101549091565b3390565b6001600160a01b0383166116025760405162461bcd60e51b81526004018080602001828103825260248152602001806128146024913960400191505060405180910390fd5b6001600160a01b0382166116475760405162461bcd60e51b815260040180806020018281038252602281526020018061269c6022913960400191505060405180910390fd5b6001600160a01b03808416600081815260676020908152604080832094871680845294825291829020859055815185815291517f8c5be1e5ebec7d5bd14f71427d1e84f3dd0314c0f7b2291e5b200ac8c7c3b9259281900390910190a3505050565b303b1590565b6001600160a01b038216600090815260d26020526040902054829015611712576040805162461bcd60e51b81526020600482015260136024820152725374616b653a207374616b652065786973747360681b604482015290519081900360640190fd5b61171c8383611d29565b6040805160608101825283815242602080830191825260008385018181526001600160a01b038916825260d29092529390932091518255516001820155905160029091015561176a83612334565b6040805183815290516001600160a01b038516917f8915595eb58a6a6bf41eb9635929fc76b8e27c299f418d35d2727b8142cd5e90919081900360200190a2505050565b60cf546001600160a01b038316600090815260d260205260408120600101549091829181908503816117dc57fe5b60d05460ce546001600160a01b038916600090815260d260205260409020549390920493909302935061182591611819908563ffffffff611e8c16565b9063ffffffff611e8c16565b8161182c57fe5b04949350505050565b6001600160a01b03831661187a5760405162461bcd60e51b81526004018080602001828103825260258152602001806127ef6025913960400191505060405180910390fd5b6001600160a01b0382166118bf5760405162461bcd60e51b815260040180806020018281038252602381526020018061260a6023913960400191505060405180910390fd5b611902816040518060600160405280602681526020016126be602691396001600160a01b038616600090815260666020526040902054919063ffffffff61199316565b6001600160a01b038085166000908152606660205260408082209390935590841681522054611937908263ffffffff611a2a16565b6001600160a01b0380841660008181526066602090815260409182902094909455805185815290519193928716927fddf252ad1be2c89b69c2b068fc378daa952ba7f163c4a11628f55a4df523b3ef92918290030190a3505050565b60008184841115611a225760405162461bcd60e51b81526004018080602001828103825283818151815260200191508051906020019080838360005b838110156119e75781810151838201526020016119cf565b50505050905090810190601f168015611a145780820380516001836020036101000a031916815260200191505b509250505060405180910390fd5b505050900390565b600082820183811015611a84576040805162461bcd60e51b815260206004820152601b60248201527f536166654d6174683a206164646974696f6e206f766572666c6f770000000000604482015290519081900360640190fd5b9392505050565b6001600160a01b038216611ae6576040805162461bcd60e51b815260206004820152601f60248201527f45524332303a206d696e7420746f20746865207a65726f206164647265737300604482015290519081900360640190fd5b606854611af9908263ffffffff611a2a16565b6068556001600160a01b038216600090815260666020526040902054611b25908263ffffffff611a2a16565b6001600160a01b03831660008181526066602090815260408083209490945583518581529351929391927fddf252ad1be2c89b69c2b068fc378daa952ba7f163c4a11628f55a4df523b3ef9281900390910190a35050565b60cd83905560ce82905560cf849055611b9d81606463ffffffff611e8c16565b60d05550505050565b600054610100900460ff1680611bbf5750611bbf6116a9565b80611bcd575060005460ff16155b611c085760405162461bcd60e51b815260040180806020018281038252602e8152602001806127a0602e913960400191505060405180910390fd5b600054610100900460ff16158015611c33576000805460ff1961ff0019909116610100171660011790555b603380546001600160a01b0319166001600160a01b0384811691909117918290556040519116906000907f8be0079c531659141344cd1fd0a4f28419497f9722a3daafe3b4186f6b6457e0908290a38015611476576000805461ff00191690555050565b611ca961013a8263ffffffff61239816565b6040516001600160a01b038216907f6ae172837ea30b801fbfcdd4108aa1d5bf8ff775444fd70256b44e6bf3dfc3f690600090a250565b611cf261013a8263ffffffff61241916565b6040516001600160a01b038216907fe94479a9f7e1952cc78f2d6baab678adc1b772d936c6583def489e524cb6669290600090a250565b6001600160a01b038216611d6e5760405162461bcd60e51b81526004018080602001828103825260218152602001806127ce6021913960400191505060405180910390fd5b611db18160405180606001604052806022815260200161262d602291396001600160a01b038516600090815260666020526040902054919063ffffffff61199316565b6001600160a01b038316600090815260666020526040902055606854611ddd908263ffffffff61248016565b6068556040805182815290516000916001600160a01b038516917fddf252ad1be2c89b69c2b068fc378daa952ba7f163c4a11628f55a4df523b3ef9181900360200190a35050565b60006001600160a01b038216611e6c5760405162461bcd60e51b815260040180806020018281038252602281526020018061277e6022913960400191505060405180910390fd5b506001600160a01b03166000908152602091909152604090205460ff1690565b600082611e9b57506000610a96565b82820282848281611ea857fe5b0414611a845760405162461bcd60e51b81526004018080602001828103825260218152602001806127356021913960400191505060405180910390fd5b6001600160a01b038116600090815260d2602052604090206001810154600290910154829110611f465760405162461bcd60e51b815260040180806020018281038252602781526020018061264f6027913960400191505060405180910390fd5b60cd546001600160a01b038216600090815260d260205260409020600201544291011115611fb2576040805162461bcd60e51b815260206004820152601460248201527314dd185ad94e881cdd185ad9481bdb881a1bdb1960621b604482015290519081900360640190fd5b6001600160a01b038216600090815260d26020526040812060020154611fd99084906117ae565b6001600160a01b038416600090815260d260205260408120805482825560018201839055600290910191909155909150612012846124c2565b61202b84612026838563ffffffff611a2a16565b611a8b565b6040805183815290516001600160a01b038616917f1248d48e2de900a1010c7fce73506969ecec243600bfc08b641b158f26d857cd919081900360200190a250505050565b600054610100900460ff168061208957506120896116a9565b80612097575060005460ff16155b6120d25760405162461bcd60e51b815260040180806020018281038252602e8152602001806127a0602e913960400191505060405180910390fd5b600054610100900460ff161580156120fd576000805460ff1961ff0019909116610100171660011790555b61210682611191565b6114645761146482611c97565b6001600160a01b038116600090815260d260205260409020548190612175576040805162461bcd60e51b815260206004820152601360248201527214dd185ad94e881b9bc81cdd185ad9481e595d606a1b604482015290519081900360640190fd5b6001600160a01b038116600090815260d26020526040902060020154156121db576040805162461bcd60e51b815260206004820152601560248201527414dd185ad94e881cdd185ad94818d85b98d95b1959605a1b604482015290519081900360640190fd5b6001600160a01b038116600090815260d26020526040902060010154421161224a576040805162461bcd60e51b815260206004820152601960248201527f5374616b653a207374616b65206a757374206372656174656400000000000000604482015290519081900360640190fd5b6001600160a01b038216600081815260d2602052604080822042600290910155517f42549297d4130b561bf55291c0aaedc0050cd4bc739be20b58090af3d85f4fd99190a25050565b6001600160a01b0381166122d85760405162461bcd60e51b81526004018080602001828103825260268152602001806126766026913960400191505060405180910390fd5b6033546040516001600160a01b038084169216907f8be0079c531659141344cd1fd0a4f28419497f9722a3daafe3b4186f6b6457e090600090a3603380546001600160a01b0319166001600160a01b0392909216919091179055565b600061233f826114cf565b509050806114765760d180546001810182556000919091527f695fb3134ad82c3b8022bc5464edd0bcc9424ef672b52245dcb6ab2374327ce30180546001600160a01b0384166001600160a01b03199091161790555050565b6123a28282611e25565b156123f4576040805162461bcd60e51b815260206004820152601f60248201527f526f6c65733a206163636f756e7420616c72656164792068617320726f6c6500604482015290519081900360640190fd5b6001600160a01b0316600090815260209190915260409020805460ff19166001179055565b6124238282611e25565b61245e5760405162461bcd60e51b81526004018080602001828103825260218152602001806127146021913960400191505060405180910390fd5b6001600160a01b0316600090815260209190915260409020805460ff19169055565b6000611a8483836040518060400160405280601e81526020017f536166654d6174683a207375627472616374696f6e206f766572666c6f770000815250611993565b6000806124ce836114cf565b91509150811561256c5760d1805460001981019081106124ea57fe5b60009182526020909120015460d180546001600160a01b03909216918390811061251057fe5b9060005260206000200160006101000a8154816001600160a01b0302191690836001600160a01b0316021790555060d180548061254957fe5b600082815260209020810160001990810180546001600160a01b03191690550190555b505050565b828054600181600116156101000203166002900490600052602060002090601f016020900481019282601f106125b257805160ff19168380011785556125df565b828001600101855582156125df579182015b828111156125df5782518255916020019190600101906125c4565b506125eb9291506125ef565b5090565b610a7b91905b808211156125eb57600081556001016125f556fe45524332303a207472616e7366657220746f20746865207a65726f206164647265737345524332303a206275726e20616d6f756e7420657863656564732062616c616e63655374616b653a207374616b65206e6f7420657869737473206f72206e6f742063616e63656c65644f776e61626c653a206e6577206f776e657220697320746865207a65726f206164647265737345524332303a20617070726f766520746f20746865207a65726f206164647265737345524332303a207472616e7366657220616d6f756e7420657863656564732062616c616e63654d696e746572526f6c653a2063616c6c657220646f6573206e6f74206861766520746865204d696e74657220726f6c65526f6c65733a206163636f756e7420646f6573206e6f74206861766520726f6c65536166654d6174683a206d756c7469706c69636174696f6e206f766572666c6f7745524332303a207472616e7366657220616d6f756e74206578636565647320616c6c6f77616e6365526f6c65733a206163636f756e7420697320746865207a65726f2061646472657373436f6e747261637420696e7374616e63652068617320616c7265616479206265656e20696e697469616c697a656445524332303a206275726e2066726f6d20746865207a65726f206164647265737345524332303a207472616e736665722066726f6d20746865207a65726f206164647265737345524332303a20617070726f76652066726f6d20746865207a65726f206164647265737345524332303a2064656372656173656420616c6c6f77616e63652062656c6f77207a65726fa265627a7a723158209d9ca1039cbe66a3ff4d5d7a7a1f7f04e2b97c9d6cfac1955d6296b126ff3a3764736f6c63430005110032",
  "compiler": {
    "name": "solc",
    "version": "0.5.17+commit.d19bba13.Emscripten.clang",
    "optimizer": {
      "enabled": true,
      "runs": 200
    },
    "evmVersion": "petersburg"
  }
}